:100000000C9462000C948A000C948A000C948A0070
:100010000C948A000C948A000C948A000C948A0038
:100020000C948A000C948A000C948A000C948A0028
:100030000C948A000C948A000C948A000C948A0018
:100040000C9466030C948A000C94D6030C94B003B1
:100050000C948A000C948A000C948A000C948A00F8
:100060000C948A000C948A000000000024002700F1
:100070002A0000000000250028002B0000000000DE
:1000800023002600290004040404040404040202DA
:100090000202020203030303030301020408102007
:1000A0004080010204081020010204081020000012
:1000B0000008000201000003040700000000000027
:1000C0000000320911241FBECFEFD8E0DEBFCDBF44
:1000D00011E0A0E0B1E0E4EBF6E102C005900D9282
:1000E000AA39B107D9F722E0AAE9B1E001C01D920F
:1000F000A736B207E1F710E0C2E6D0E004C02197CE
:10010000FE010E94520BC136D107C9F70E944D046F
:100110000C94580B0C940000833081F028F481304B
:1001200099F08230A9F008958730A9F08830C9F09D
:100130008430B1F4809180008F7D03C08091800075
:100140008F7780938000089584B58F7784BD08955C
:1001500084B58F7DFBCF8091B0008F778093B00006
:1001600008958091B0008F7DF9CFCF93DF93282F32
:1001700030E0F901E255FF4F8491F901E656FF4F57
:10018000D491F901EA57FF4FC491CC23A1F081111A
:100190000E948C00EC2FF0E0EE0FFF1FE458FF4FA1
:1001A000A591B491EC91ED2381E090E009F480E019
:1001B000DF91CF91089580E090E0FACF1F93CF9325
:1001C000DF93282F30E0F901E255FF4F8491F901C8
:1001D000E656FF4FD491F901EA57FF4FC491CC2363
:1001E000A9F0162F81110E948C00EC2FF0E0EE0F89
:1001F000FF1FEE58FF4FA591B4918FB7F894EC9183
:10020000111108C0D095DE23DC938FBFDF91CF9111
:100210001F910895DE2BF8CFCF93DF9390E0FC0180
:10022000E656FF4F24918A579F4FFC018491882303
:10023000D1F090E0880F991FFC01E859FF4FA5917C
:10024000B491FC01EE58FF4FC591D49161110EC0DD
:100250009FB7F8948C91E22FE0958E238C932881A0
:10026000E223E8839FBFDF91CF9108958FB7F89481
:10027000EC91E22BEC938FBFF6CF1F93CF93DF93DC
:10028000182FEB0161E00E940C01209739F460E027
:10029000812FDF91CF911F910C94DE00CF3FD105CC
:1002A00011F461E0F5CFE12FF0E0E255FF4FE4916A
:1002B000E33031F140F4E130B1F0E230E1F0C03848
:1002C000D1057CF7E4CFE73029F1E83059F1E4308B
:1002D000B1F780918000806280938000D0938B0082
:1002E000C0938A0004C084B5806884BDC7BDDF9117
:1002F000CF911F91089584B5806284BDC8BDF7CFAA
:1003000080918000806880938000D0938900C093A2
:100310008800EDCF8091B00080688093B000C093DA
:10032000B300E5CF8091B00080628093B000C093AD
:10033000B400DDCFAF92BF92CF92DF92EF92FF92E7
:100340000F931F93CF93DF936C017B018B01040FFD
:10035000151FEB015E01AE18BF08C017D10759F099
:100360006991D601ED91FC910190F081E02DC601DB
:100370000995892B79F7C501DF91CF911F910F91D5
:10038000FF90EF90DF90CF90BF90AF900895FC0169
:10039000538D448D252F30E0842F90E0821B930BEA
:1003A000541710F0CF96089501970895FC01918D90
:1003B000828D981761F0A28DAE0FBF2FB11D5D9693
:1003C0008C91928D9F5F9F73928F90E008958FEF35
:1003D0009FEF0895FC01918D828D981731F0828DE9
:1003E000E80FF11D858D90E008958FEF9FEF089540
:1003F000FC01918D228D892F90E0805C9F4F821BA4
:1004000091098F73992708958AEC91E00E94F80171
:1004100021E0892B09F420E0822F089580E090E00C
:10042000892B29F00E94040281110C940000089588
:10043000FC01A48DA80FB92FB11DA35ABF4F2C9159
:10044000848D90E001968F739927848FA689B78950
:100450002C93A089B1898C91837080648C93938D47
:10046000848D981306C00288F389E02D80818F7DEA
:1004700080830895EF92FF920F931F93CF93DF93A2
:10048000EC0181E0888F9B8D8C8D98131AC0E889D0
:10049000F989808185FF15C09FB7F894EE89FF899F
:1004A0006083E889F98980818370806480839FBF3D
:1004B00081E090E0DF91CF911F910F91FF90EF903D
:1004C0000895F62E0B8D10E00F5F1F4F0F7311274D
:1004D000E02E8C8D8E110CC00FB607FCFACFE88988
:1004E000F989808185FFF5CFCE010E941802F1CFF6
:1004F000EB8DEC0FFD2FF11DE35AFF4FF0829FB7FC
:10050000F8940B8FEA89FB8980818062CFCFCF93EB
:10051000DF93EC01888D8823B9F0AA89BB89E8892B
:10052000F9898C9185FD03C0808186FD0DC00FB6D1
:1005300007FCF7CF8C9185FFF2CF808185FFEDCF4F
:10054000CE010E941802E9CFDF91CF910895CF9399
:10055000DF93C091AF01D091B00161E0209709F025
:1005600060E08AE00E94DE0061E0C130D10509F060
:1005700060E08BE00E94DE0061E0229709F060E01D
:100580008CE0DF91CF910C94DE00CF93DF93D62FD8
:10059000C72F8F3F910519F014F08FEF90E097FF70
:1005A00002C090E080E0BC0185E00E943D016D2F1B
:1005B0007C2F6F3F710519F014F06FEF70E077FF3B
:1005C00002C070E060E086E0DF91CF910C943D01C5
:1005D000FC0101900020E9F73197AF01481B590B4E
:1005E000BC018AEC91E00C949A018F929F92AF9299
:1005F000BF920F931F93CF93DF93CDB7DEB7A19731
:100600000FB6F894DEBF0FBECDBF19A2423008F47A
:100610004AE08E010F5D1F4F842E912CB12CA12C2E
:10062000A50194010E94300BE62FB901CA01EA30FE
:10063000F4F4E05DD801EE938D01232B242B252BC0
:1006400079F790E080E0109719F0CD010E94E80260
:10065000A1960FB6F894DEBF0FBECDBFDF91CF914C
:100660001F910F91BF90AF909F908F900895E95C7C
:10067000E1CFCF92DF92EF92FF92CF93DF936B01A6
:100680007C016DE28AEC91E00E943A02EC0166275F
:100690007727CB016C197D098E099F094AE00E94DA
:1006A000F5028C0F9D1FDF91CF91FF90EF90DF90AF
:1006B000CF9008950C94E802BC01990F880B990B18
:1006C00097FD0C9439034AE00C94F5021F920F92A7
:1006D0000FB60F9211242F933F938F939F93AF9355
:1006E000BF938091C6019091C701A091C801B091BC
:1006F000C9013091C50123E0230F2D3758F501962C
:10070000A11DB11D2093C5018093C6019093C7011F
:10071000A093C801B093C9018091C1019091C20119
:10072000A091C301B091C4010196A11DB11D809398
:10073000C1019093C201A093C301B093C401BF91C2
:10074000AF919F918F913F912F910F900FBE0F907E
:100750001F90189526E8230F0296A11DB11DD2CF38
:100760001F920F920FB60F9211242F933F934F9326
:100770005F936F937F938F939F93AF93BF93EF9309
:10078000FF938AEC91E00E941802FF91EF91BF91D4
:10079000AF919F918F917F916F915F914F913F9119
:1007A0002F910F900FBE0F901F9018951F920F92D0
:1007B0000FB60F9211242F938F939F93EF93FF9374
:1007C000E091DA01F091DB018081E091E001F091AC
:1007D000E10182FD1BC090818091E3018F5F8F73E7
:1007E0002091E401821741F0E091E301F0E0E6534B
:1007F000FE4F958F8093E301FF91EF919F918F9131
:100800002F910F900FBE0F901F9018958081F4CFFD
:10081000CF92DF92EF92FF920F931F93E82FF92F61
:1008200005C0015011092109310961F19081962318
:100830009417B9F305C0015011092109310911F1CB
:10084000908196239413F7CFC12CD12CE12CF12C5D
:100850000AC08FEFC81AD80AE80AF80A0C151D0555
:100860002E053F0579F080818623841791F36C2D46
:100870007D2D8E2D9F2D1F910F91FF90EF90DF907A
:10088000CF90089560E070E080E090E01F910F91BC
:10089000FF90EF90DF90CF900895789484B58260B8
:1008A00084BD84B5816084BD85B5826085BD85B514
:1008B000816085BD80916E00816080936E00109292
:1008C000810080918100826080938100809181000D
:1008D000816080938100809180008160809380009E
:1008E0008091B10084608093B1008091B0008160FC
:1008F0008093B00080917A00846080937A00809128
:100900007A00826080937A0080917A00816080937F
:100910007A0080917A00806880937A001092C100FA
:1009200060E08EE00E940C0160E08FE00E940C010C
:1009300060E080E10E940C0161E088E00E940C010F
:1009400060E089E00E940C0161E085E00E940C01FA
:1009500061E086E00E940C0161E08AE00E940C01E7
:1009600061E08BE00E940C0161E08CE00E940C01D0
:1009700070E060E090E080E00E94C5020E94A70263
:10098000E091DA01F091DB0182E08083E091D60111
:10099000F091D7011082E091D801F091D9018FEC4C
:1009A00080831092E201E091DE01F091DF0186E0A8
:1009B0008083E091DC01F091DD01808180618083A2
:1009C000E091DC01F091DD01808188608083E0911D
:1009D000DC01F091DD01808180688083E091DC01A1
:1009E000F091DD0180818F7D80838DE191E00E9417
:1009F000E80284E391E00E94E80222242394312C4F
:100A0000C2E0D0E08FB7F894C090C601D090C70183
:100A1000E090C801F090C9018FBF8091BD01909115
:100A2000BE01A091BF01B091C001A7019601281B92
:100A3000390B4A0B5B0BDA01C9010A97A105B10515
:100A400008F1C092BD01D092BE01E092BF01F092C8
:100A5000C0018EE00E94B5004C018FE00E94B500FD
:100A60005C0180E10E94B5008114910409F0ABC0E3
:100A7000A114B10409F0A7C0009709F0A4C031E0A7
:100A80003093AC018091B9019091BA01A091BB0162
:100A9000B091BC01A7019601281B390B4A0B5B0BD7
:100AA000DA01C901CC97A105B10508F44DC0C09287
:100AB000B901D092BA01E092BB01F092BC0160E0B2
:100AC00088E00E94DE0083E090E00197F1F761E0AA
:100AD00088E00E94DE0083E290E00197F1F760E099
:100AE00088E00E94DE00E3EAF0E06491EFE8F0E0E5
:100AF0008491E82FF0E0EE0FFF1FE458FF4F85913F
:100B0000949100E315E720E030E0462F0E940804AE
:100B1000611571058105910559F06F5F7F4F8F4F0A
:100B20009F4F9F70611571058105910509F076C091
:100B300020E030EC49E754E42093000130930101B8
:100B400040930201509303018091B5019091B60149
:100B5000A091B701B091B801A7019601281B390BEC
:100B60004A0B5B0BDA01C9010A97A105B10508F42C
:100B7000B4C1C092B501D092B601E092B701F09233
:100B8000B8018091AF019091B0018130910509F4D5
:100B9000BCC008F45AC0029709F4F3C0A090AF019A
:100BA000B090B00181E0A816B10409F486C108F440
:100BB00009C1A2E0AA16B10409F08FC170E060E09B
:100BC00090E080E061C11092AC0141E08416910494
:100BD00061F4A114B104F1F4892B79F48FEF9FEF44
:100BE0009093AE018093AD014DCF892831F4A1E0FF
:100BF000AA16B10439F4019741F01092AE01109297
:100C0000AD0140CFAB28B9F3F8CF3092AE012092BE
:100C1000AD0138CFAA94AB28F9F2EFCF0E94090AB0
:100C200028E23EE74CE05DE30E94BE0A20E030E0AF
:100C300040E05FE30E94BE0A6093000170930101EF
:100C400080930201909303017FCF20E030E040E9E0
:100C500051E4609100017091010180910201909135
:100C600003010E94CC0987FF1BC03092B001209283
:100C7000AF01C0929E01D0929F01E092A001F0923C
:100C8000A1011092A7011092A601C092A201D092D8
:100C9000A301E092A401F092A5010E94A7027ECFD9
:100CA0008091AC01882341F180919A0190919B0140
:100CB000A0919C01B0919D010097A105B10549F457
:100CC000C0929A01D0929B01E0929C01F0929D010A
:100CD00065CFA7019601281B390B4A0B5B0BDA0184
:100CE000C90181329340A105B10508F46BC0D093CE
:100CF000B001C093AF01D1CF10929A0110929B0125
:100D000010929C0110929D0149CF80919E0190917B
:100D10009F01A091A001B091A10146015701881A3D
:100D2000990AAA0ABB0A41E7841647E19406A1047E
:100D3000B10430F0D093B001C093AF010E94A7027C
:100D40008091AC0181112ACF20E030E040E951E4EC
:100D50006091000170910101809102019091030165
:100D60000E94B90A87FD1ACF59EE851653E0950601
:100D7000A104B10408F412CF1092B0011092AF0197
:100D80008CCF8091AC01811119CF20E030E040E997
:100D900051E46091000170910101809102019091F4
:100DA00003010E94B90A87FD09CF1092B001109289
:100DB000AF0110929A0110929B0110929C01109227
:100DC0009D016BCF8091AC018111F8CE6091AD0196
:100DD0007091AE01072E000C880B990B0E94090A36
:100DE00020E030E040EA52E40E94BE0A4B015C0180
:100DF000AC019B0160E070E084E393E40E945F0932
:100E00002B013C0120E030E044E353E4C501B40190
:100E10000E9460094B015C0120E030E0A901C301A0
:100E2000B2010E94CC0987FD32C020E030E04FE7DC
:100E300053E4C301B2010E94B90A181664F120E01C
:100E400030E0A901C501B4010E94CC0987FD2AC088
:100E500020E030E04FE753E4C501B4010E94B90A35
:100E6000181624F1C301B2010E94D1092B0170931D
:100E7000AB016093AA01C501B4010E94D10970932E
:100E8000A9016093A801C2010E94C50226C0412C9D
:100E9000512C3201D4CF412C512C9FE7692E93E481
:100EA000792ECDCF812C912C5401DCCF812C912C2B
:100EB0008FE7A82E83E4B82ED5CF8091A60190911C
:100EC000A7018230910509F4EAC00CF092C00097A6
:100ED00009F49BC0019709F4C1C08091B1019091C0
:100EE000B201A091B301B091B401A7019601281BF2
:100EF000390B4A0B5B0BDA01C901843F9140A10514
:100F0000B10508F469C0C092B101D092B201E0927B
:100F1000B301F092B40187E391E00E945A038091FB
:100F2000AF019091B001009709F0FBC080E491E01F
:100F30000E945A0382E591E00E945A038091AD011C
:100F40009091AE010E945C0380E691E00E945A03FA
:100F50008091AC01882309F4ECC086E191E00E9405
:100F60005A038DE691E00E945A03C0900001D09090
:100F70000101E0900201F0900301A7019601C70171
:100F8000B6010E942B0B882309F4D6C086E791E0B6
:100F90000E94E80282E891E00E945A0386E891E00C
:100FA0000E945A038091AA019091AB010E945C03B8
:100FB00081E991E00E945A036091A8017091A90112
:100FC000072E000C880B990B97FF48C10E9439032C
:100FD00084E391E00E94E80240E050E0452B09F4F0
:100FE00011CD0E940402882309F40ACD0E9400005A
:100FF00007CD8330910509F475C0049709F06DCFD2
:1010000064EB70E084EB90E03FCF70E060E090E054
:1010100080E00E94C5028091A2019091A301A0915D
:10102000A401B091A501A7019601281B390B4A0B19
:101030005B0BDA01C901893C9105A105B10508F4F2
:101040004CCFB092A701A092A601C092A201D0926B
:10105000A301E092A401F092A5013FCF70E060E00F
:1010600084EB90E00E94C5028091A2019091A301BF
:10107000A091A401B091A501A7019601281B390BED
:101080004A0B5B0BDA01C9018D3B9240A105B1050A
:1010900008F423CFD093A701C093A601D6CF64EB69
:1010A00070E084EB90E00E94C5028091A2019091D3
:1010B000A301A091A401B091A501A7019601281B4D
:1010C000390B4A0B5B0BDA01C90143E050E085386C
:1010D0009340A105B10508F400CF5093A7014093B8
:1010E000A601B3CF64EB70E090E080E00E94C502FF
:1010F0008091A2019091A301A091A401B091A501BA
:10110000A7019601281B390B4A0B5B0BDA01C901B9
:101110008D3B9240A105B10508F4DFCE44E050E0DC
:10112000DCCF019719F487E491E002CF8DE491E0E0
:10113000FFCE8AE191E013CF46015701E894B7F85A
:101140002FEF3FEF4FE75FE7C501B4010E942B0B84
:1011500081110DC02FEF3FEF4FE75FE7C501B401ED
:101160000E94CC0918161CF48AE791E011CF2FEFEA
:101170003FEF4FE75FE4C701B6010E94B90A1816B6
:101180001CF48EE791E004CF2FEF3FEF4FE75FECC9
:10119000C701B6010E94CC0987FDF3CF20E030E003
:1011A000A901C701B6010E94CC0987FF09C06DE201
:1011B0008AEC91E00E943A02F7FAF094F7F8F09482
:1011C0002AE037ED43EA5BE3C701B6010E946009FC
:1011D0004B015C010E94D8096B017C010E94070A47
:1011E0009B01AC01C501B4010E945F094B015C0188
:1011F0004AE0C701B6010E94F5026EE28AEC91E076
:101200000E943A0220E030E040E251E4C501B4011E
:101210000E94BE0A4B015C010E94D8096B01F12CAF
:10122000E12C4AE0C701B6010E94F502C701B601F0
:101230000E94070A9B01AC01C501B4010E945F092D
:1012400020E030E040E251E40E94BE0A0E94D8094A
:1012500090E080E04AE00E94F5029CCE4AE00E94C5
:10126000F502B6CEEAECF1E01382128288EE93E04A
:10127000A0E0B0E084839583A683B78388E091E003
:101280009183808385EC90E09587848784EC90E05F
:101290009787868780EC90E0918B808B81EC90E043
:1012A000938B828B82EC90E0958B848B86EC90E024
:1012B000978B868B118E128E138E148E0895505834
:1012C000BB27AA270E9477090C947F0A0E94710A03
:1012D00038F00E94780A20F039F49F3F19F426F480
:1012E0000C946E0A0EF4E095E7FB0C94680AE92F63
:1012F0000E94900A58F3BA1762077307840795078C
:1013000020F079F4A6F50C94B20A0EF4E0950B2EB9
:10131000BA2FA02D0B01B90190010C01CA01A00147
:101320001124FF27591B99F0593F50F4503E68F1A2
:101330001A16F040A22F232F342F4427585FF3CFE3
:10134000469537952795A795F0405395C9F77EF4B4
:101350001F16BA0B620B730B840BBAF09150A1F0FD
:10136000FF0FBB1F661F771F881FC2F70EC0BA0F83
:10137000621F731F841F48F4879577956795B7950B
:10138000F7959E3F08F0B0CF9395880F08F0992706
:10139000EE0F9795879508950E94440A08F481E01E
:1013A00008950E94D8096894B1110C94B30A089565
:1013B0000E94980A88F09F5798F0B92F9927B75143
:1013C000B0F0E1F0660F771F881F991F1AF0BA95E9
:1013D000C9F714C0B13091F00E94B20AB1E008958B
:1013E0000C94B20A672F782F8827B85F39F0B93F7D
:1013F000CCF3869577956795B395D9F73EF490959C
:101400008095709561957F4F8F4F9F4F0895E89419
:1014100009C097FB3EF490958095709561957F4F3C
:101420008F4F9F4F9923A9F0F92F96E9BB279395EA
:10143000F695879577956795B795F111F8CFFAF4FA
:10144000BB0F11F460FF1BC06F5F7F4F8F4F9F4F2B
:1014500016C0882311F096E911C0772321F09EE889
:10146000872F762F05C0662371F096E8862F70E0EF
:1014700060E02AF09A95660F771F881FDAF7880FC9
:101480009695879597F90895990F0008550FAA0B1F
:10149000E0E8FEEF16161706E807F907C0F0121687
:1014A0001306E407F50798F0621B730B840B950B8A
:1014B00039F40A2661F0232B242B252B21F40895DF
:1014C0000A2609F4A140A6958FEF811D811D08957C
:1014D00097F99F6780E870E060E008959FEF80ECE7
:1014E000089500240A94161617061806090608958A
:1014F00000240A9412161306140605060895092EF0
:101500000394000C11F4882352F0BB0F40F4BF2B5E
:1015100011F460FF04C06F5F7F4F8F4F9F4F08959E
:1015200057FD9058440F551F59F05F3F71F0479594
:10153000880F97FB991F61F09F3F79F08795089579
:10154000121613061406551FF2CF4695F1DF08C098
:10155000161617061806991FF1CF869571056105B5
:1015600008940895E894BB2766277727CB0197F95D
:1015700008950E94440A08F48FEF08950E94D10A4A
:101580000C947F0A0E94710A38F00E94780A20F0B9
:10159000952311F00C94680A0C946E0A11240C9493
:1015A000B30A0E94900A70F3959FC1F3950F50E023
:1015B000551F629FF001729FBB27F00DB11D639F05
:1015C000AA27F00DB11DAA1F649F6627B00DA11DAB
:1015D000661F829F2227B00DA11D621F739FB00D51
:1015E000A11D621F839FA00D611D221F749F3327C1
:1015F000A00D611D231F849F600D211D822F762F5A
:101600006A2F11249F5750409AF0F1F088234AF036
:10161000EE0FFF1FBB1F661F771F881F91505040A2
:10162000A9F79E3F510580F00C94680A0C94B30A08
:101630005F3FE4F3983ED4F3869577956795B79529
:10164000F795E7959F5FC1F7FE2B880F911D969543
:10165000879597F908950E94440A880B990B08957D
:10166000A1E21A2EAA1BBB1BFD010DC0AA1FBB1FA6
:10167000EE1FFF1FA217B307E407F50720F0A21B18
:10168000B30BE40BF50B661F771F881F991F1A9485
:1016900069F760957095809590959B01AC01BD01AF
:1016A000CF010895EE0FFF1F0590F491E02D0994EE
:0416B000F894FFCFDC
:1016B40000C07944000000003A029A01C701870281
:1016C400F801D601EA01594553004E4F004C696EAA
:1016D4006520726F626F74207374617274696E67CF
:1016E4002E2E2E000D0A005354415445203D200057
:1016F400464F4C4C4F570041564F49440053544FAA
:101704005000207C206C696E654572726F723D00DA
:10171400207C206C696E654C6F73743D00207C20C6
:10172400646973743D006E616E00696E66006F7665
:10173400660020636D00207C204C73706565643DF9
:0A17440000205273706565643D00DB
:00000001FF
